:020000040800F2
:100000000028002055170008F5030008F703000832
:10001000F9030008FB030008FD03000800000000CE
:10002000000000000000000000000000FF030008C6
:100030000104000800000000030400080504000893
:100040009D1700089D1700089D1700089D170008C0
:100050009D1700089D1700089D1700089D170008B0
:100060009D1700089D1700089D1700089D170008A0
:100070009D1700089D1700089D1700089D17000890
:100080009D1700089D1700089D1700089D17000880
:100090009D1700089D1700089D1700089D17000870
:1000A0009D1700089D1700089D1700089D17000860
:1000B0009D1700089D170008000000009D1700080C
:1000C0009D17000800000000000000000D0400085B
:1000D000000000001D0400089D170008000000003B
:1000E0009D1700089D1700089D17000800000000DC
:1000F0000000000000000000000000000000000000
:0C01000000000000000000005FF808F1A3
:10010C0010B5054C237833B9044B13B10448AFF345
:10011C0000800123237010BD0C00002000000000A3
:10012C00F817000808B5034B1BB103490348AFF39C
:10013C00008008BD0000000010000020F817000827
:10014C0008B500F0B5F901F0CAFA00F013F800F0A8
:10015C0065F800F0D9F84FF40051044800F016FE91
:10016C004FF47A7000F0C8F9F5E700BF00100140B9
:10017C0072B6FEE7F0B589B0002404940594069499
:10018C000794234B9A6942F010029A619A6902F023
:10019C0010020092009A9A6942F020029A619A69C0
:1001AC0002F020020192019A9A6942F004029A61CB
:1001BC009A6902F004020292029A9A6942F00802C9
:1001CC009A619B6903F008030393039B114F22462A
:1001DC004FF40051384600F0D3FD0F4D2246042158
:1001EC00284600F0CDFD4FF40053049301230593F2
:1001FC0006940226079604A9384600F0B5FC04962E
:10020C000594069404A9284600F0AEFC09B0F0BD94
:10021C0000100240001001400008014008B50E48D3
:10022C000E4B03604FF48273436000238360C36002
:10023C00036143614FF4007282611022C261036258
:10024C00436283620A23C36200F090FE00B908BDCA
:10025C00FFF78EFFFBE700BF2800002000300140B5
:10026C0070B586B000230293039304930593026840
:10027C00234B9A4201D006B070BD03F560439A69D6
:10028C0042F480529A619A6902F480520092009A68
:10029C009A6942F004029A619B6903F0040301938A
:1002AC00019B042302930123039303240594154D0E
:1002BC0002A9284600F058FC20230293022603963C
:1002CC00059402A9284600F04FFC80230293039664
:1002DC00059402A9284600F047FC40230293002411
:1002EC000394049402A9284600F03EFC22462146C1
:1002FC00232000F009FE232000F016FEBBE700BF10
:10030C00003001400008014008B50A480A4B036060
:10031C004FF4E133436000238360C36003610C221C
:10032C0042618361C36100F0ADFF00B908BDFFF706
:10033C001FFFFBE7C00000200038014030B587B03C
:10034C000023029303930493059302681B4B9A4278
:10035C0001D007B030BD03F558439A6942F480428E
:10036C009A619A6902F480420092009A9A6942F06A
:10037C0004029A619B6903F004030193019B4FF4FF
:10038C000073029302230393032305930C4D02A9DC
:10039C00284600F0E9FB4FF4806302930024039499
:1003AC00049402A9284600F0DFFB224621462520B2
:1003BC0000F0AAFD252000F0B7FDCAE70038014087
:1003CC000008014008B50268044B9A4200D008BDF1
:1003DC0040220349034801F06EF9F8E70038014068
:1003EC0080000020C0000020FEE7FEE7FEE7FEE7ED
:1003FC00FEE770477047704708B500F06BF808BD12
:10040C0008B5024800F00EFE08BD00BF2800002011
:10041C0008B5024800F0F2FF08BD00BFC000002084
:10042C0082B00E4B9A6942F001029A619A6902F00D
:10043C0001020092009ADA6942F08052DA61DB69BB
:10044C0003F080530193019B054A536823F0E0634A
:10045C0043F00073536002B0704700BF00100240BD
:10046C000000014010B504460E4B1A784FF47A7315
:10047C00B3FBF2F30C4A1068B0FBF3F000F062FD32
:10048C0068B90F2C01D901200AE0002221464FF057
:10049C00FF3000F039FD054B1C60002000E001200E
:1004AC0010BD00BF00000020080000200400002048
:1004BC0008B5074A136843F010031360032000F0DB
:1004CC0011FD0F20FFF7CEFFFFF7AAFF002008BD9C
:1004DC0000200240034A1168034B1B780B44136045
:1004EC00704700BF0801002000000020014B186875
:1004FC00704700BF0801002038B50446FFF7F6FF2F
:10050C000546B4F1FF3F02D0044B1B781C44FFF7A7
:10051C00EDFF401BA042FAD338BD00BF0000002005
:10052C0082B0084B1B68084AA2FB03235B0A00FB42
:10053C0003F3019300BF019B5A1E0192002BF9D1CA
:10054C0002B0704708000020D34D6210002800F064
:10055C00F18170B582B00446036813F0010F2CD002
:10056C00994B5B6803F00C03042B1DD0964B5B6816
:10057C0003F00C03082B12D06368B3F5803F41D015
:10058C00002B55D103F1804303F504331A6822F490
:10059C0080321A601A6822F480221A6037E08A4B83
:1005AC005B6813F4803FE7D0874B1B6813F4003F64
:1005BC0003D06368002B00F0BF81236813F0020F97
:1005CC0075D0814B5B6813F00C0F5FD07E4B5B6872
:1005DC0003F00C03082B54D02369002B00F08A8005
:1005EC007A4B01221A60FFF781FF0546764B1B6898
:1005FC0013F0020F75D1FFF779FF401B0228F5D9D4
:10060C0003209EE1704A136843F4803313606368DF
:10061C0043B3FFF76BFF05466B4B1B6813F4003FAE
:10062C00CBD1FFF763FF401B6428F5D9032088E189
:10063C00B3F5A02F09D0644B1A6822F480321A60EB
:10064C001A6822F480221A60E1E703F18043A3F5D3
:10065C003C331A6842F480221A601A6842F48032E1
:10066C001A60D4E7FFF742FF0546574B1B6813F49B
:10067C00003FA2D0FFF73AFF401B6428F5D90320B6
:10068C005FE1514B5B6813F4803FA5D14E4B1B6867
:10069C0013F0020F03D02369012B40F04F814A4A1B
:1006AC00136823F0F803616943EAC10313602368FC
:1006BC0013F0080F33D0A369002B5CD0434B0122FD
:1006CC00C3F88024FFF712FF05463F4B5B6A13F01B
:1006DC00020F21D1FFF70AFF401B0228F5D9032096
:1006EC002FE1394A136823F0F803616943EAC10327
:1006FC001360DCE7354B00221A60FFF7F7FE054666
:10070C00314B1B6813F0020FD1D0FFF7EFFE401BEB
:10071C000228F5D9032014E10120FFF701FF23681B
:10072C0013F0040F00F09680274BDB6913F0805F09
:10073C0034D1254BDA6942F08052DA61DB6903F07F
:10074C0080530193019B0125214B1B6813F4807F7F
:10075C0026D0E368012B3DD0002B53D103F180430D
:10076C0003F504331A6A22F001021A621A6A22F0A3
:10077C0004021A6233E0154B0022C3F88024FFF701
:10078C00B5FE0546104B5B6A13F0020FC7D0FFF79E
:10079C00ADFE401B0228F5D90320D2E00025D3E79B
:1007AC000B4A136843F480731360FFF79FFE0646F1
:1007BC00074B1B6813F4807FCBD1FFF797FE801B90
:1007CC006428F5D90320BCE000100240000042422E
:1007DC00007000405F4A136A43F001031362E36840
:1007EC0033B3FFF783FE06465A4B1B6A13F0020F16
:1007FC002FD1FFF77BFE801B41F288339842F3D94F
:10080C0003209EE0052B09D0524B1A6A22F00102FC
:10081C001A621A6A22F004021A62E0E74D4B1A6A55
:10082C0042F004021A621A6A42F001021A62D6E716
:10083C00FFF75CFE0646474B1B6A13F0020F08D00D
:10084C00FFF754FE801B41F288339842F3D9032002
:10085C0077E0E5B9E369002B72D03E4A526802F0AA
:10086C000C02082A56D0022B17D03B4B00221A66DA
:10087C00FFF73CFE0446374B1B6813F0007F47D054
:10088C00FFF734FE001B0228F5D9032059E0314A4A
:10089C00D36923F08053D361DCE72F4B00221A6617
:1008AC00FFF724FE05462B4B1B6813F0007F06D088
:1008BC00FFF71CFE401B0228F5D9032041E0236AF8
:1008CC00B3F5803F1AD023494B6823F47413226A82
:1008DC00606A024313434B601F4B01221A66FFF7F9
:1008EC0005FE04461B4B1B6813F0007F0ED1FFF76F
:1008FC00FDFD001B0228F5D9032022E0154A5368A0
:10090C0023F40033A1680B435360DCE7002018E0AC
:10091C00002016E0012B16D00E4B5B6803F48031DF
:10092C00226A914211D103F47013626A93420ED180
:10093C00002006E001207047012002E0012000E0C9
:10094C00002002B070BD0120FBE70120F9E7012077
:10095C00F7E700BF00100240000042420F4B5B68FB
:10096C0003F00C02082A01D00D487047C3F38342F0
:10097C000C49885C13F4803F0BD0084B5B68C3F3C5
:10098C004043094AD35C064A02FB00F0B0FBF3F08B
:10099C007047064B03FB00F0704700BF001002408D
:1009AC0000127A00141800081018000800093D0005
:1009BC00002800F0A08070B50D460446524B1B6811
:1009CC0003F007038B420BD24F4A136823F0070343
:1009DC000B431360136803F007038B4240F08D80C8
:1009EC00236813F0020F17D013F0040F04D0474AFA
:1009FC00536843F4E0635360236813F0080F04D08A
:100A0C00424A536843F460535360404A536823F09E
:100A1C00F003A1680B435360236813F0010F31D02E
:100A2C006368012B20D0022B25D0384A126812F0B3
:100A3C00020F64D035494A6822F0030213434B601D
:100A4C00FFF754FD0646314B5B6803F00C036268FC
:100A5C00B3EB820F16D0FFF749FD801B41F28833B0
:100A6C009842F0D9032045E0284A126812F4003F5E
:100A7C00E0D101203EE0254A126812F0007FD9D166
:100A8C00012037E0204B1B6803F00703AB420AD967
:100A9C001D4A136823F007032B431360136803F0FC
:100AAC000703AB422DD1236813F0040F06D0174A6D
:100ABC00536823F4E063E1680B435360236813F03D
:100ACC00080F07D0114A536823F46053216943EA95
:100ADC00C1035360FFF742FF0C4B5B68C3F3031376
:100AEC000B4AD35CD8400B4B18600B4B1868FFF7C4
:100AFC00B9FC002070BD012070470120FAE70120ED
:100B0C00F8E70120F6E700BF002002400010024089
:100B1C002C1800080800002004000020014B186865
:100B2C00704700BF0800002008B5FFF7F7FF044B23
:100B3C005B68C3F30223034AD35CD84008BD00BFF3
:100B4C00001002402418000808B5FFF7E7FF044B1B
:100B5C005B68C3F3C223034AD35CD84008BD00BF13
:100B6C00001002402418000870B582B00024A4467E
:100B7C0086E07D4DAB4210D007D97C4DAB420CD0FA
:100B8C0005F58035AB4208D015E0A5F58015AB42D4
:100B9C0003D005F57025AB4209D18B68002B00F012
:100BAC00BB80012B00F0B3804261082403E0A5F563
:100BBC008015AB42F1D0BEF1FF0F00F2AF800646BC
:100BCC004FEA8C0233680F25954023EA050304FA9B
:100BDC0002F2134333604B6813F0805F4ED0644BCA
:100BEC009A6942F001029A619B6903F00103019337
:100BFC00019B4FEA9C02951C5E4B53F825600CF050
:100C0C000305AD000F23AB4026EA03065A4B98426E
:100C1C0000F08B8003F58063984200F0888003F528
:100C2C00806398427FD00323AB4033430232514D53
:100C3C0045F822304B6813F4801F7AD04F4A9368E2
:100C4C0043EA0E0393604B6813F4001F77D04B4AB2
:100C5C00D36843EA0E03D3604B6813F4003F74D09F
:100C6C00464A536843EA0E0353604B6813F4803FC3
:100C7C0071D0424A136843EA0E0313600CF1010C65
:100C8C000B6833FA0CF26CD0012202FA0CF203EA74
:100C9C00020E32EA0303F1D14B68122B3FF669AF17
:100CAC00122B88D801A555F823F000BFA70B00081C
:100CBC00050D00080F0D0008210D0008C30B0008DE
:100CCC00C30B0008C30B0008C30B0008C30B0008C0
:100CDC00C30B0008C30B0008C30B0008C30B0008B0
:100CEC00C30B0008C30B0008C30B0008C30B0008A0
:100CFC00090D0008150D0008CC685CE7CC680434BD
:100D0C0059E7CC68083456E7CC680C3453E70261D9
:100D1C00082450E700244EE704244CE7061DACF1F0
:100D2C00080292004EE702237EE700237CE70123B2
:100D3C007AE7124A936823EA0E03936083E70F4A1B
:100D4C00D36823EA0E03D36086E70C4A536823EA80
:100D5C000E03536089E7094A136823EA0E031360F4
:100D6C008CE702B070BD00BF0000221000003110F3
:100D7C000010024000000140000801400004014046
:100D8C000AB101617047090401617047C36801EA47
:100D9C00030221EA030141EA024101617047034663
:100DAC0090F82120D2B2022A06D0042282630022BB
:100DBC0080F820200120704701680A6822F00E029A
:100DCC000A6001680A6822F001020A60026CC06BBA
:100DDC00012101FA02F2426083F82110002083F80D
:100DEC002000704708B590F82130DBB2022B03D0FD
:100DFC0004238363012008BD0268136823F00E03EB
:100E0C0013600268136823F0010313600368194A26
:100E1C00934214D0143293421FD0143293421ED0FA
:100E2C00143293421ED0143293421ED01432934289
:100E3C0002D04FF0807203E04FF4801200E00122E8
:100E4C000D4B5A60012380F82130002380F82030AC
:100E5C00436B6BB198470020CDE71022F0E74FF4BD
:100E6C008072EDE74FF48052EAE74FF48032E7E707
:100E7C000020C0E70800024000000240002808DB08
:100E8C000901C9B200F1604000F5614080F800131F
:100E9C00704700F00F000901C9B2014B195470479B
:100EAC0014ED00E000B500F00700C0F1070CBCF138
:100EBC00040F28BF4FF0040C031D062B0FD9C31EC3
:100ECC004FF0FF3E0EFA0CF021EA000199400EFAA9
:100EDC0003FE22EA0E0241EA02005DF804FB002345
:100EEC00EEE70000074AD36823F4E0631B041B0CF5
:100EFC00000200F4E060034343F0BF6343F40033AB
:100F0C00D360704700ED00E010B50446054BD8687F
:100F1C00C0F30220FFF7C6FF01462046FFF7AEFFE5
:100F2C0010BD00BF00ED00E0002807DB00F01F0241
:100F3C00400901239340024A42F82030704700BF19
:100F4C0000E100E00138B0F1807F0BD24FF0E023DC
:100F5C005861054AF02182F823100020986107227D
:100F6C001A6170470120704700ED00E0002856D050
:100F7C0010B50446436A33B94368B3F5827F05D094
:100F8C000023C36102E00023036143610023A362D9
:100F9C0094F85130002B3CD0022384F85130226855
:100FAC00136823F040031360636803F48273A26830
:100FBC0002F404421343E26802F400621343226910
:100FCC0002F002021343626902F001021343A269A8
:100FDC0002F400721343E26902F038021343226AEE
:100FEC0002F080021343A26A02F4005221681343F8
:100FFC000B60638B226803F0040353602268D3698F
:10100C0023F40063D36100206065012384F8513020
:10101C0010BD84F850302046FFF722F9BCE70120C0
:10102C007047704710B584B00446026851689368E5
:10103C0003F0410001285AD013F0020F02D011F036
:10104C00800F5BD113F0600F5BD011F0200F58D0E4
:10105C0013F0400F0FD094F85100C0B2032852D0B7
:10106C00606D40F00400606500200190D068019034
:10107C0090680190019813F0200F0CD0636D43F031
:10108C00010363650023039393680393136823F0B0
:10109C0040031360039B636D002B32D022685368AE
:1010AC0023F0E0035360012384F8513011F0030F57
:1010BC0031D02268536823F003035360E36C4BB1C7
:1010CC00174A5A63E06CFFF78DFE18B1636D43F05D
:1010DC0040036365A36CA3B1114A5A63A06CFFF77C
:1010EC0081FE70B1636D43F04003636509E011F05C
:1010FC00400FA1D0236C2046984702E0636C204639
:10110C00984704B010BD00230293D36802939368F0
:10111C000293029BF5E72046FFF783FFF1E700BF40
:10112C003111000808B5406A0023C387C386FFF756
:10113C0078FF08BD026802F10C0353E8003F23F46A
:10114C0090730C3242E800310029F3D1026802F1AD
:10115C00140353E8003F23F00103143242E800313A
:10116C000029F3D1036B012B05D0202380F84230EA
:10117C00002303637047026802F10C0353E8003F3D
:10118C0023F010030C3242E800310029F3D1ECE7D4
:10119C0090F84130DBB2212B01D0022070478368DC
:1011AC00B3F5805F17D0036A5A1C02621A78036881
:1011BC005A60C38C9BB2013B9BB2C3844BB902688F
:1011CC00D36823F08003D3600268D36843F04003F4
:1011DC00D360002070470369002BE4D1036A1B889D
:1011EC000268C3F308035360036A02330362E0E747
:1011FC0010B504460268136923F44053C1680B43CD
:10120C00136183680269134342691A430168CB680E
:10121C0023F4B05323F00C031343CB6002685369DF
:10122C0023F4407381690B4353610268134B9A4258
:10123C0020D0FFF779FC024602EB820202EB82021D
:10124C0063689B00B2FBF3F20D48A0FB0231490925
:10125C00642303FB11231B013233A0FB03035B0943
:10126C0003F0F00202EB011203F00F0321681344A8
:10127C008B6010BDFFF768FC0246DDE700380140CB
:10128C001F85EB5160B310B5044690F8413013B391
:10129C00242384F841302268D36823F40053D360AC
:1012AC002046FFF7A5FF2268136923F490431361CE
:1012BC002268536923F02A0353612268D36843F4EC
:1012CC000053D36000206064202384F8413084F8FC
:1012DC004230606310BD80F84030FFF72FF8D7E73D
:1012EC0001207047704708B50168CA6822F04002B7
:1012FC00CA60202280F84120FFF7F4FF002008BDCF
:10130C00704708B5406A0023C385C384FFF7F8FF14
:10131C0008BD704790F84230DBB2222B69D183684C
:10132C00B3F5805F4FD0826AB3F5805F04D0002B99
:10133C0056D10369002B53D103685B681370836A21
:10134C0001338362C38D9BB2013B9BB2C385002BDF
:10135C0051D100B583B00268D36823F02003D36069
:10136C000268D36823F48073D3600268536923F056
:10137C0001035361202380F8423000234363036B45
:10138C00012B33D100230363026802F10C0353E8F1
:10139C00003F23F010030C3242E800310029F3D156
:1013AC0003681A6812F0100F06D0002201921A6816
:1013BC0001925B680193019B818DFFF7AAFF0020CE
:1013CC0003B05DF804FB0269002AACD1826A0368A1
:1013DC005B68C3F308031380836A02338362B1E74B
:1013EC0003685B6803F07F031370A8E7FEF7EAFF5E
:1013FC00E5E70220704700207047000010B582B06E
:10140C00044602681368D068516913F00F0F09D1B4
:10141C0013F0200F0CD010F0200F09D02046FFF74E
:10142C0079FF16E011F0010115D110F4907F12D163
:10143C00216B012979D013F0800F03D010F0800FAD
:10144C0040F0138113F0400F03D010F0400F40F028
:10145C00108102B010BD13F0010F06D010F4807F84
:10146C0003D0626C42F00102626413F0040F04D0EA
:10147C0019B1626C42F00202626413F0020F04D0E4
:10148C0019B1626C42F00402626413F0080F07D0C9
:10149C0010F0200F00D119B1626C42F008026264A6
:1014AC00626C002AD5D013F0200F02D010F0200F60
:1014BC0029D123685B6903F04003626C12F0080FBA
:1014CC0000D163B32046FFF735FE23685B6913F048
:1014DC00400F20D0226802F1140353E8003F23F0A0
:1014EC004003143242E800310029F3D1E36B73B1AD
:1014FC00624A5A63E06BFFF775FC0028A9D0E06BD9
:10150C00436B9847A5E72046FFF704FFD1E7204639
:10151C00FFF7F6FE9DE72046FFF7F2FE99E720461F
:10152C00FFF7EEFE0023636493E713F0100F82D0F5
:10153C0010F0100F3FF47FAF002301931368019359
:10154C0053680193019B536913F0400F51D0E26B28
:10155C0013685B689BB2002B3FF47BAFA18D994263
:10156C007FF677AFE3859369202B37D0226802F1A1
:10157C000C0353E8003F23F480730C3242E8003133
:10158C000029F3D1226802F1140353E8003F23F041
:10159C000103143242E800310029F3D1226802F130
:1015AC00140353E8003F23F04003143242E80031A7
:1015BC000029F3D1202384F84230002323632268CE
:1015CC0002F10C0353E8003F23F010030C3242E805
:1015DC0000310029F3D1E06BFFF7E1FB02236363D9
:1015EC00A18DE38D9BB2C91A89B22046FFF791FEFB
:1015FC002FE7A18DE38D9BB2C91A89B2E38D9BB203
:10160C00002B3FF426AF00293FF423AF226802F1F0
:10161C000C0353E8003F23F490730C3242E8003083
:10162C000028F3D1226802F1140353E8003F23F0A1
:10163C000103143242E800300028F3D1202384F84F
:10164C00423000232363226802F10C0353E8003F6D
:10165C0023F010030C3242E800300028F3D10223AF
:10166C0063632046FFF755FEF3E62046FFF790FD37
:10167C00EFE62046FFF737FEEBE600BF0F1300083E
:10168C0081628285C28500234364222380F8423024
:10169C00036923B10268D36843F48073D360026892
:1016AC00536943F0010353610268D36843F020038C
:1016BC00D3600020704708B590F84230DBB2202B85
:1016CC0008D149B10AB9012008BD00230363FFF713
:1016DC00D7FFF9E70220F7E70120F5E7704700B5DF
:1016EC0091B02822002106A800F053F800230193A2
:1016FC000293039304930593012206924FF48033D3
:10170C0007930A9202220D920E934FF4E0130F935B
:10171C0006A8FEF71BFF80B90F230193022102914B
:10172C00002303934FF480620492059301A8FFF702
:10173C003FF928B911B05DF804FBFEF719FDEBE792
:10174C00FEF716FDF6E70000FFF7C8FF0B480C4943
:10175C000C4A002302E0D458C4500433C4188C4201
:10176C00F9D3094A094C002301E013600432A24268
:10177C00FBD300F017F8FEF7E3FC704700000020E5
:10178C000C000020441800080C0000200C01002064
:10179C00FEE703460244934200D1704703F8011B55
:1017AC00F9E7000070B500260C4D0D4C641BA4101D
:1017BC00A64209D100F01AF800260A4D0A4C641B07
:1017CC00A410A64205D170BD55F8043B98470136CC
:1017DC00EEE755F8043B98470136F2E73C18000851
:1017EC003C1800083C18000840180008F8B500BF69
:1017FC00F8BC08BC9E467047F8B500BFF8BC08BCE6
:04180C009E4670473D
:101810000102000002030405060708090A0B0C0D6B
:101820000E0F101000000000010203040000000071
:0C18300000000000010203040607080984
:04183C00310100086E
:041840000D0100088E
:0C184400010000001000000000127A00FB
:040000050800175583
:00000001FF
