:020000040800F2
:100000000028002095210008E5050008E705000804
:10001000E9050008EB050008ED05000800000000F8
:10002000000000000000000000000000EF050008D4
:10003000F105000800000000F3050008F5050008C0
:10004000DD210008DD210008DD210008DD21000898
:10005000DD210008DD210008DD210008DD21000888
:10006000DD210008DD210008DD210008DD21000878
:10007000DD210008DD210008DD210008DD21000868
:10008000DD210008DD210008DD210008DD21000858
:10009000DD210008DD210008DD210008DD21000848
:1000A000DD210008DD210008DD210008DD21000838
:1000B000DD210008DD21000800000000DD2100082E
:1000C000DD2100080000000000000000FD05000820
:1000D000000000000D060008DD21000800000000FF
:1000E000DD210008DD210008DD21000800000000FE
:1000F0000000000000000000000000000000000000
:0C01000000000000000000005FF808F1A3
:10010C0070B5860747D0541E002A3ED00346CAB2AB
:10011C0001E0013C39D303F8012B9D07F9D1032CE5
:10012C002CD9CDB205EB05250F2C1A4605EB054550
:10013C0034D9A4F1100C2CF00F0603F1100EB644B8
:10014C004FEA1C1C156055609560D56010327245E5
:10015C00F8D10CF1010214F00C0F03EB021204F0B5
:10016C000F0C13D0ACF1040323F00303043313443A
:10017C0042F8045B9A42FBD10CF003042CB1C9B2D7
:10018C001C4403F8011B9C42FBD170BD6446134612
:10019C00002CF4D1F9E703461446C0E7A446E1E786
:1001AC0070B50F4B0F4DAB42A3EB050607D00024E7
:1001BC00B61055F8043B01349847A642F9D802F022
:1001CC0009F8094D094B5E1BAB424FEAA60606D057
:1001DC00002455F8043B01349847A642F9D870BD69
:1001EC002C2200082C2200082C22000830220008A7
:1001FC0010B5054C237833B9044B13B10448AFF355
:10020C0000800123237010BD0C00002000000000B2
:10021C00E021000808B5034B1BB103490348AFF3B9
:10022C00008008BD0000000010000020E021000844
:10023C0000B585B0054BEC460FCB8CE80F00604643
:10024C0001F068FF05B05DF804FB00BFF821000861
:10025C0008B500F025FA01F0AAFE00F045F800F010
:10026C00A9F84FF4FA7000F03FFAFFF7E1FF01F044
:10027C00F6FE01F0F9FE01F041FF01F033FF4FF4FF
:10028C000051044800F0CFFE4FF47A7000F02CFAC5
:10029C00F5E700BF0010014072B6FEE710B584B060
:1002AC00002300930193029303930123009398423C
:1002BC0003D010B9019302230393064C69462046E0
:1002CC0000F024FD00220121204600F0A6FE04B01F
:1002DC0010BD00BF0008014008B50121014800F025
:1002EC001FFE08BD0008014030B589B000240494FD
:1002FC000594069407941D4B9A6942F010029A617A
:10030C009A6902F010020092009A9A6942F0200257
:10031C009A619A6902F020020192019A9A6942F05C
:10032C0004029A619A6902F004020292029A9A6992
:10033C0042F008029A619B6903F008030393039B44
:10034C000B4D22464FF40051284600F066FE4FF448
:10035C00005304930123059306940223079304A9E5
:10036C00284600F0D3FC09B030BD00BF001002409D
:10037C000010014010B504460020FFF78FFF224605
:10038C000121034800F049FEFFF7A6FF002010BD35
:10039C000008014010B50120FFF780FF012104483F
:1003AC0000F034FE0446FFF797FF204610BD00BF57
:1003BC000008014008B50E480E4B03604FF48273E1
:1003CC00436000238360C360036143614FF4007298
:1003DC0082613022C2610362436283620A23C36278
:1003EC0000F0D2FF00B908BDFFF756FFFBE700BFD6
:1003FC002800002000300140F0B587B000230293A4
:10040C000393049305930268254B9A4201D007B0DD
:10041C00F0BD03F560439A6942F480529A619A697F
:10042C0002F480520092009A9A6942F004029A6196
:10043C009B6903F004030193019B04260296012798
:10044C00039703250595174C02A9204600F05EFC86
:10045C003A463146204600F0E0FD20230293022666
:10046C000396059502A9204600F050FC80230293C8
:10047C000396059502A9204600F048FC4023029300
:10048C0000250395049502A9204600F03FFC2A465E
:10049C002946232000F086FE232000F093FEB6E7C9
:1004AC000030014000080140B0B500AF144602F125
:1004BC00080303F4FC73ADEB030D6D46400000F034
:1004CC007E008DF80000002303E0581CCB5C2B54FD
:1004DC00C3B2A342F9D3002204210D4800F09DFDC4
:1004EC004FF0FF33621C29460A4800F0A8FF38B9C8
:1004FC0001220421064800F090FD0020BD46B0BD4D
:10050C0001220421024800F088FD4FF0FF30F5E78E
:10051C0000080140280000202DE9F04182B000AF16
:10052C000E461546400000F07E0040F08000F87149
:10053C00D31D03F4FC73ADEB030D002204211B4807
:10054C0000F06BFD4FF0FF330122F91D184800F04D
:10055C0076FF78B9E8464FF0FF332A4641461448F7
:10056C0001F079F9044668B9012204210F4800F022
:10057C0054FD14E0012204210C4800F04EFD4FF014
:10058C00FF300FE001220421084800F046FD4FF037
:10059C00FF3007E018F8043033550134E4B2AC42B4
:1005AC00F8D300200837BD46BDE8F08100080140B3
:1005BC002800002008B50268044B9A4200D008BD00
:1005CC0040220349034801F0DEFCF8E70038014003
:1005DC0080000020C0000020FEE7FEE7FEE7FEE7FB
:1005EC00FEE770477047704708B500F06BF808BD20
:1005FC0008B5024801F0F4F908BD00BF280000203E
:10060C0008B5024801F062FB08BD00BFC000002025
:10061C0082B00E4B9A6942F001029A619A6902F01B
:10062C0001020092009ADA6942F08052DA61DB69C9
:10063C0003F080530193019B054A536823F0E06358
:10064C0043F00073536002B0704700BF00100240CB
:10065C000000014010B504460E4B1A784FF47A7323
:10066C00B3FBF2F30C4A1068B0FBF3F000F0B8FDEA
:10067C0068B90F2C01D901200AE0002221464FF065
:10068C00FF3000F08FFD054B1C60002000E00120C6
:10069C0010BD00BF00000020080000200400002056
:1006AC0008B5074A136843F010031360032000F0E9
:1006BC0067FD0F20FFF7CEFFFFF7AAFF002008BD54
:1006CC0000200240034A1168034B1B780B44136053
:1006DC00704700BF0801002000000020014B186883
:1006EC00704700BF0801002038B50446FFF7F6FF3D
:1006FC000546B4F1FF3F02D0044B1B781C44FFF7B6
:10070C00EDFF401BA042FAD338BD00BF0000002013
:10071C0082B0084B1B68084AA2FB03235B0A00FB50
:10072C0003F3019300BF019B5A1E0192002BF9D1D8
:10073C0002B0704708000020D34D6210002800F072
:10074C00F18170B582B00446036813F0010F2CD010
:10075C00994B5B6803F00C03042B1DD0964B5B6824
:10076C0003F00C03082B12D06368B3F5803F41D023
:10077C00002B55D103F1804303F504331A6822F49E
:10078C0080321A601A6822F480221A6037E08A4B91
:10079C005B6813F4803FE7D0874B1B6813F4003F72
:1007AC0003D06368002B00F0BF81236813F0020FA5
:1007BC0075D0814B5B6813F00C0F5FD07E4B5B6880
:1007CC0003F00C03082B54D02369002B00F08A8013
:1007DC007A4B01221A60FFF781FF0546764B1B68A6
:1007EC0013F0020F75D1FFF779FF401B0228F5D9E2
:1007FC0003209EE1704A136843F4803313606368EE
:10080C0043B3FFF76BFF05466B4B1B6813F4003FBC
:10081C00CBD1FFF763FF401B6428F5D9032088E197
:10082C00B3F5A02F09D0644B1A6822F480321A60F9
:10083C001A6822F480221A60E1E703F18043A3F5E1
:10084C003C331A6842F480221A601A6842F48032EF
:10085C001A60D4E7FFF742FF0546574B1B6813F4A9
:10086C00003FA2D0FFF73AFF401B6428F5D90320C4
:10087C005FE1514B5B6813F4803FA5D14E4B1B6875
:10088C0013F0020F03D02369012B40F04F814A4A29
:10089C00136823F0F803616943EAC103136023680A
:1008AC0013F0080F33D0A369002B5CD0434B01220B
:1008BC00C3F88024FFF712FF05463F4B5B6A13F029
:1008CC00020F21D1FFF70AFF401B0228F5D90320A4
:1008DC002FE1394A136823F0F803616943EAC10335
:1008EC001360DCE7354B00221A60FFF7F7FE054674
:1008FC00314B1B6813F0020FD1D0FFF7EFFE401BFA
:10090C000228F5D9032014E10120FFF701FF236829
:10091C0013F0040F00F09680274BDB6913F0805F17
:10092C0034D1254BDA6942F08052DA61DB6903F08D
:10093C0080530193019B0125214B1B6813F4807F8D
:10094C0026D0E368012B3DD0002B53D103F180431B
:10095C0003F504331A6A22F001021A621A6A22F0B1
:10096C0004021A6233E0154B0022C3F88024FFF70F
:10097C00B5FE0546104B5B6A13F0020FC7D0FFF7AC
:10098C00ADFE401B0228F5D90320D2E00025D3E7A9
:10099C000B4A136843F480731360FFF79FFE0646FF
:1009AC00074B1B6813F4807FCBD1FFF797FE801B9E
:1009BC006428F5D90320BCE000100240000042423C
:1009CC00007000405F4A136A43F001031362E3684E
:1009DC0033B3FFF783FE06465A4B1B6A13F0020F24
:1009EC002FD1FFF77BFE801B41F288339842F3D95D
:1009FC0003209EE0052B09D0524B1A6A22F001020B
:100A0C001A621A6A22F004021A62E0E74D4B1A6A63
:100A1C0042F004021A621A6A42F001021A62D6E724
:100A2C00FFF75CFE0646474B1B6A13F0020F08D01B
:100A3C00FFF754FE801B41F288339842F3D9032010
:100A4C0077E0E5B9E369002B72D03E4A526802F0B8
:100A5C000C02082A56D0022B17D03B4B00221A66E8
:100A6C00FFF73CFE0446374B1B6813F0007F47D062
:100A7C00FFF734FE001B0228F5D9032059E0314A58
:100A8C00D36923F08053D361DCE72F4B00221A6625
:100A9C00FFF724FE05462B4B1B6813F0007F06D096
:100AAC00FFF71CFE401B0228F5D9032041E0236A06
:100ABC00B3F5803F1AD023494B6823F47413226A90
:100ACC00606A024313434B601F4B01221A66FFF707
:100ADC0005FE04461B4B1B6813F0007F0ED1FFF77D
:100AEC00FDFD001B0228F5D9032022E0154A5368AE
:100AFC0023F40033A1680B435360DCE7002018E0BB
:100B0C00002016E0012B16D00E4B5B6803F48031ED
:100B1C00226A914211D103F47013626A93420ED18E
:100B2C00002006E001207047012002E0012000E0D7
:100B3C00002002B070BD0120FBE70120F9E7012085
:100B4C00F7E700BF00100240000042420F4B5B6809
:100B5C0003F00C02082A01D00D487047C3F38342FE
:100B6C000C49885C13F4803F0BD0084B5B68C3F3D3
:100B7C004043094AD35C064A02FB00F0B0FBF3F099
:100B8C007047064B03FB00F0704700BF001002409B
:100B9C0000127A000C2200080822000800093D000F
:100BAC00002800F0A08070B50D460446524B1B681F
:100BBC0003F007038B420BD24F4A136823F0070351
:100BCC000B431360136803F007038B4240F08D80D6
:100BDC00236813F0020F17D013F0040F04D0474A08
:100BEC00536843F4E0635360236813F0080F04D098
:100BFC00424A536843F460535360404A536823F0AD
:100C0C00F003A1680B435360236813F0010F31D03C
:100C1C006368012B20D0022B25D0384A126812F0C1
:100C2C00020F64D035494A6822F0030213434B602B
:100C3C00FFF754FD0646314B5B6803F00C0362680A
:100C4C00B3EB820F16D0FFF749FD801B41F28833BE
:100C5C009842F0D9032045E0284A126812F4003F6C
:100C6C00E0D101203EE0254A126812F0007FD9D174
:100C7C00012037E0204B1B6803F00703AB420AD975
:100C8C001D4A136823F007032B431360136803F00A
:100C9C000703AB422DD1236813F0040F06D0174A7B
:100CAC00536823F4E063E1680B435360236813F04B
:100CBC00080F07D0114A536823F46053216943EAA3
:100CCC00C1035360FFF742FF0C4B5B68C3F3031384
:100CDC000B4AD35CD8400B4B18600B4B1868FFF7D2
:100CEC00B9FC002070BD012070470120FAE70120FB
:100CFC00F8E70120F6E700BF002002400010024098
:100D0C001C220008080000200400002070B582B0EE
:100D1C000024A44687E07C4DAB4214D00CD8A5F53A
:100D2C008015AB420FD005F57025AB420BD0A5F565
:100D3C008015AB4212D106E0744DAB4203D005F5E1
:100D4C008035AB420AD18B68002B00F0B580012BAB
:100D5C0000F0AD804261082400E0CC68BEF1FF0FCA
:100D6C0000F2AC8006464FEA8C0233680F259540A2
:100D7C0023EA050304FA02F2134333604B6813F0C1
:100D8C00805F4ED0624B9A6942F001029A619B6976
:100D9C0003F001030193019B4FEA9C02951C5D4BF0
:100DAC0053F825600CF00305AD000F23AB4026EA89
:100DBC000306594B984200F0888003F580639842F3
:100DCC0000F0858003F5806398427CD00323AB4010
:100DDC00334302324F4D45F822304B6813F4801FD9
:100DEC0077D04E4A936843EA0E0393604B6813F432
:100DFC00001F74D0494AD36843EA0E03D3604B6892
:100E0C0013F4003F71D0454A536843EA0E03536014
:100E1C004B6813F4803F6ED0404A136843EA0E03CC
:100E2C0013600CF1010C0B6833FA0CF269D001223F
:100E3C0002FA0CF203EA020E32EA0303F1D14B6818
:100E4C00122B3FF668AF122B88D801A555F823F06A
:100E5C00530D0008670D0008AF0E0008C10E000806
:100E6C00690D0008690D0008690D0008690D00087E
:100E7C00690D0008690D0008690D0008690D00086E
:100E8C00690D0008690D0008690D0008690D00085E
:100E9C00690D0008A90E0008B50E0008CC680434D2
:100EAC005CE7CC68083459E7CC680C3456E702612F
:100EBC00082453E7002451E704244FE7061DACF146
:100ECC000802920051E7022381E700237FE7012308
:100EDC007DE7124A936823EA0E03936086E70F4A74
:100EEC00D36823EA0E03D36089E70C4A536823EADC
:100EFC000E0353608CE7094A136823EA0E03136050
:100F0C008FE702B070BD00BF00002210000031104E
:100F1C0000100240000001400008014000040140A4
:100F2C00002262E0022500E0002505FA04F4744575
:100F3C003AD0FF2B52D80646950034684FF00F0C70
:100F4C000CFA05FC24EA0C044FF0040C0CFA05FC1A
:100F5C0044EA0C043460C46824EA0303C36001321D
:100F6C0031FA02F33FD0012393400B40F7D096089F
:100F7C00B51C234C54F8255002F00304A4004FF088
:100F8C000F0C0CFA04FC0CEA050E1E4DA842CBD03B
:100F9C0005F58065A84205D005F58065A842C1D04D
:100FAC000325C2E70125C0E7174C256825EA030590
:100FBC002560656825EA03056560E56825EA030593
:100FCC00E560A56825EA0305A5600D4D023655F8C8
:100FDC00264024EA0C0445F82640AAE7061DA2F197
:100FEC000805AD00A9E770BD013231FA02F305D056
:100FFC00012393400B40F7D070B5B8E7704700BFA2
:10100C0000000140000801400004014083681942BF
:10101C0001D001207047002070470AB10161704770
:10102C00090401617047C36801EA030221EA030164
:10103C0041EA024101617047034690F82120D2B287
:10104C00022A06D004228263002280F8202001208C
:10105C00704701680A6822F00E020A6001680A688B
:10106C0022F001020A60026CC06B012101FA02F24B
:10107C00426083F82110002083F8200070470000A4
:10108C0008B590F82130DBB2022B03D00423836324
:10109C00012008BD0268136823F00E031360026878
:1010AC00136823F0010313600368194A934214D0A8
:1010BC00143293421FD0143293421ED014329342F6
:1010CC001ED0143293421ED01432934202D04FF0F1
:1010DC00807203E04FF4801200E001220D4B5A6045
:1010EC00012380F82130002380F82030436B6BB152
:1010FC0098470020CDE71022F0E74FF48072EDE71F
:10110C004FF48052EAE74FF48032E7E70020C0E763
:10111C000800024000000240002808DB0901C9B2A7
:10112C0000F1604000F5614080F80013704700F05A
:10113C000F000901C9B2014B1954704714ED00E0BE
:10114C0000B500F00700C0F1070CBCF1040F28BF7C
:10115C004FF0040C031D062B0FD9C31E4FF0FF3E9E
:10116C000EFA0CF021EA000199400EFA03FE22EA75
:10117C000E0241EA02005DF804FB0023EEE70000DA
:10118C00074AD36823F4E0631B041B0C000200F431
:10119C00E060034343F0BF6343F40033D360704714
:1011AC0000ED00E010B50446054BD868C0F30220F2
:1011BC00FFF7C6FF01462046FFF7AEFF10BD00BF8C
:1011CC0000ED00E0002807DB00F01F0240090123BE
:1011DC009340024A42F82030704700BF00E100E023
:1011EC000138B0F1807F0BD24FF0E0235861054AF3
:1011FC00F02182F823100020986107221A617047B1
:10120C000120704700ED00E02DE9F04782B0054663
:10121C00884617461E46FFF761FA0A9B1B1A03EB1A
:10122C000609FFF75BFA8246284B1B68C3F3CB33E6
:10123C0009FB03F301932B689C6838EA04040CBF88
:10124C0001230023BB423DD0B6F1FF3FF3D0FFF7A3
:10125C0045FAA0EB0A00484507D2019A02B14A466A
:10126C00019B013B01939146E5E72A68536823F003
:10127C00E00353606B68B3F5827F0BD0AB6AB3F5B8
:10128C00005F14D0012385F85130002385F85030CD
:10129C00032018E0AB68B3F5004F02D0B3F5806FB4
:1012AC00ECD12A68136823F040031360E6E72A6840
:1012BC00136823F4005313602A68136843F4005333
:1012CC001360DFE7002002B0BDE8F08708000020C3
:1012DC0070B582B006460C46154600920B460122AC
:1012EC000221FFF791FF48B9009523460022802187
:1012FC003046FFF789FF38B902B070BD736D43F00B
:10130C00200373650320F7E7736D43F020037365C7
:10131C000320F1E710B582B004460B464168B1F5E5
:10132C00827F10D06168B1F5827F03D1A168B1F5DD
:10133C00806F15D00092002280212046FFF764FFB9
:10134C00E0B902B010BD8168B1F5004F02D0B1F523
:10135C00806FE7D12068016821F040010160E1E76E
:10136C000092002201212046FFF74EFF0028E8D012
:10137C00636D43F0200363650320E2E7636D43F084
:10138C00200363650320DCE7002856D010B5044623
:10139C00436A33B94368B3F5827F05D00023C36138
:1013AC0002E00023036143610023A36294F85130EF
:1013BC00002B3CD0022384F851302268136823F0B0
:1013CC0040031360636803F48273A26802F404425E
:1013DC001343E26802F400621343226902F0020232
:1013EC001343626902F001021343A26902F4007212
:1013FC001343E26902F038021343226A02F08002BE
:10140C001343A26A02F40052216813430B60638BEE
:10141C00226803F0040353602268D36923F4006349
:10142C00D36100206065012384F8513010BD84F82D
:10143C0050302046FEF7E0FFBCE7012070472DE955
:10144C00F04383B00446894690461D46FFF746F9A3
:10145C0094F85160F6B2012E40F0CC800746B9F1F9
:10146C00000F00F0C880B8F1000F00F0C48094F8B1
:10147C005030012B00F0C380012384F8503003233B
:10148C0084F8513000236365C4F83090A4F834809C
:10149C00A4F83680A363A387E38763642364A368FB
:1014AC00B3F5004F1ED023681A6812F0400F03D119
:1014BC001A6842F040021A60E368B3F5006F1CD062
:1014CC00636813B1B8F1010F5FD1226B23681278F6
:1014DC001A73236B01332363E38E9BB2013B9BB2E4
:1014EC00E38652E02268136823F0400313602268FD
:1014FC00136843F480431360D5E7636813B1B8F104
:10150C00010F15D1226B23681288DA60236B02332A
:10151C002363E38E9BB2013B9BB2E38608E0FFF7AB
:10152C00DDF8C01BA84202D3B5F1FF3F15D1A5B120
:10153C00E38E9BB2002B42D023689A6812F0020F04
:10154C00EDD0226B1288DA60236B02332363E38EB7
:10155C009BB2013B9BB2E386EAE7012384F851304E
:10156C00002384F85030032645E0226B12781A735E
:10157C00236B01332363B4F836C01FFA8CFC0CF1D7
:10158C00FF3C1FFA8CFCA4F836C0E38E9BB2B3B1BF
:10159C0023689A6812F0020FE7D1FFF79FF8C01B7F
:1015AC00A84202D3B5F1FF3F01D1002DEDD10123AB
:1015BC0084F85130002384F8503003261BE03A465F
:1015CC0029462046FFF784FE08B120236365A368F3
:1015DC0033B901932368DA6801929B680193019BEC
:1015EC00012384F85130002384F85030636D13B913
:1015FC00002600E00226304603B0BDE8F083022648
:10160C00F9E72DE9F04383B00446884691461F461E
:10161C000A9DFFF763F8064694F85130DBB2626816
:10162C00012B0AD0B2F5827F40F00581A268002A16
:10163C0040F00581042B40F00481B8F1000F00F05C
:10164C000281B9F1000F00F00081002F00F0FF8043
:10165C0094F85030012B00F0FC80012384F85030BA
:10166C0094F85130DBB2042B02D0052384F85130AE
:10167C0000236365C4F83890E787A787C4F83080E7
:10168C00E786A7862364636423681A6812F0400F08
:10169C0003D11A6842F040021A60E368B3F5006F98
:1016AC0011D063680BB1012F0BD1226B2368127818
:1016BC001A73236B01332363E38E9BB2013B9BB202
:1016CC00E386012771E063680BB1012F0BD1226B0C
:1016DC0023681288DA60236B02332363E38E9BB298
:1016EC00013B9BB2E38601271BE023689A6812F04A
:1016FC00010F0ED0E28F92B25AB1DA68A36B1A8046
:10170C00A36B0233A363E38F9BB2013B9BB2E387D2
:10171C000127FEF7E3FF801BA84202D3B5F1FF3F80
:10172C001ED1E38E9BB21BB9E38F9BB2002B62D010
:10173C0023689A6812F0020FD7D0E28E92B2002A78
:10174C00D3D0002FD1D0226B1288DA60236B0233F6
:10175C002363E38E9BB2013B9BB2E3860027C4E775
:10176C00012384F85130002384F85030032063E0C7
:10177C0023689A6812F0010F0ED0E28F92B25AB120
:10178C00DA68A36B1A70A36B0133A363E38F9BB26C
:10179C00013B9BB2E3870127FEF7A0FF831BAB4203
:1017AC0002D3B5F1FF3F1ED1EDB1E38E9BB213B95D
:1017BC00E38F9BB2FBB123689A6812F0020FD7D06B
:1017CC00E28E92B2002AD3D0002FD1D0226B1278A5
:1017DC001A73236B01332363E38E9BB2013B9BB2E1
:1017EC00E3860027C4E7012384F85130002384F8F2
:1017FC005030032020E0324629462046FFF768FD92
:10180C0090B9A36833B901932368DA6801929B6895
:10181C000193019B012384F85130002384F850304C
:10182C00636D4BB1012007E020236365002384F82E
:10183C005030012000E0022003B0BDE8F08302200C
:10184C00FAE70220F8E70120F6E70120F4E701208F
:10185C00F2E70220F0E72DE9F04383B090F85160F5
:10186C00F6B2012E40F0B4800446894690461D46DF
:10187C004368B3F5827F01D1836893B3FEF72EFFE3
:10188C000746B9F1000F00F0A480B8F1000F00F08A
:10189C00A08094F85030012B00F09F80012384F835
:1018AC005030042384F8513000236365C4F8389019
:1018BC00A4F83C80A4F83E802363A386E3862364CB
:1018CC006364A368B3F5004F15D023681A6812F04F
:1018DC00400F03D11A6842F040021A60E368F3B17A
:1018EC0043E0042380F85130009513460A46FFF775
:1018FC0088FE06466DE02268136823F040031360EF
:10190C002268136823F480431360DEE7FEF7E6FEDB
:10191C00C01BA84202D3B5F1FF3F15D1A5B1E38F8F
:10192C009BB2002B42D023689A6812F0010FEDD0C5
:10193C00A26B1B7B1370A36B0133A363E38F9BB26E
:10194C00013B9BB2E387EAE7012384F85130002383
:10195C0084F8503003263CE0FEF7C0FEC01BA842C2
:10196C0002D3B5F1FF3F19D1C5B1E38F9BB2EBB1F7
:10197C0023689A6812F0010FEED0DA68A36B1A8014
:10198C00A36B0233A363B4F83EC01FFA8CFC0CF1BA
:10199C00FF3C1FFA8CFCA4F83EC0E6E7012384F858
:1019AC005130002384F85030032612E03A46294681
:1019BC002046FFF7AFFC08B120236365012384F8B0
:1019CC005130002384F85030636D13B9002600E0C9
:1019DC000226304603B0BDE8F0830226F9E77047D3
:1019EC0030B585B00446026851689368C3F3801023
:1019FC0013F0400F05D113F0010F02D011F0400F7E
:101A0C005AD113F0020F02D011F0800F58D1C3F34A
:101A1C00401513F0200F01D1002854D011F0200FE5
:101A2C0051D078B194F85130DBB2032B4DD0636DAB
:101A3C0043F00403636500230193D3680193936817
:101A4C000193019B65B1636D43F001036365002352
:101A5C00039393680393136823F040031360039B71
:101A6C00636D002B2FD02268536823F0E003536082
:101A7C00012384F8513011F0030F2ED022685368E3
:101A8C0023F003035360E36C4BB1164A5A63E06CCA
:101A9C00FFF7F6FA18B1636D43F040036365A36C6E
:101AAC008BB1104A5A63A06CFFF7EAFA58B1636D18
:101ABC0043F04003636506E0236C2046984702E040
:101ACC00636C2046984705B030BD00230293D36861
:101ADC00029393680293029BF5E72046FFF77FFF82
:101AEC00F1E700BFF51A000808B5406A0023C38768
:101AFC00C386FFF774FF08BD026802F10C0353E8BC
:101B0C00003F23F490730C3242E800310029F3D1EA
:101B1C00026802F1140353E8003F23F0010314326E
:101B2C0042E800310029F3D1036B012B05D02023AF
:101B3C0080F84230002303637047026802F10C0303
:101B4C0053E8003F23F010030C3242E80031002927
:101B5C00F3D1ECE790F84130DBB2212B01D002201D
:101B6C0070478368B3F5805F17D0036A5A1C026212
:101B7C001A7803685A60C38C9BB2013B9BB2C38436
:101B8C004BB90268D36823F08003D3600268D36832
:101B9C0043F04003D360002070470369002BE4D16D
:101BAC00036A1B880268C3F308035360036A023399
:101BBC000362E0E7704708B50168CA6822F040028A
:101BCC00CA60202280F84120FFF7F4FF002008BDF6
:101BDC00704708B5406A0023C385C384FFF7F8FF3C
:101BEC0008BD704790F84230DBB2222B69D1836874
:101BFC00B3F5805F4FD0826AB3F5805F04D0002BC1
:101C0C0056D10369002B53D103685B681370836A48
:101C1C0001338362C38D9BB2013B9BB2C385002B06
:101C2C0051D100B583B00268D36823F02003D36090
:101C3C000268D36823F48073D3600268536923F07D
:101C4C0001035361202380F8423000234363036B6C
:101C5C00012B33D100230363026802F10C0353E818
:101C6C00003F23F010030C3242E800310029F3D17D
:101C7C0003681A6812F0100F06D0002201921A683D
:101C8C0001925B680193019B818DFFF7AAFF0020F5
:101C9C0003B05DF804FB0269002AACD1826A0368C8
:101CAC005B68C3F308031380836A02338362B1E772
:101CBC0003685B6803F07F031370A8E7FEF77AFCF8
:101CCC00E5E70220704700207047000010B582B095
:101CDC00044602681368D068516913F00F0F09D1DC
:101CEC0013F0200F0CD010F0200F09D02046FFF776
:101CFC0079FF16E011F0010115D110F4907F12D18B
:101D0C00216B012979D013F0800F03D010F0800FD4
:101D1C0040F0138113F0400F03D010F0400F40F04F
:101D2C00108102B010BD13F0010F06D010F4807FAB
:101D3C0003D0626C42F00102626413F0040F04D011
:101D4C0019B1626C42F00202626413F0020F04D00B
:101D5C0019B1626C42F00402626413F0080F07D0F0
:101D6C0010F0200F00D119B1626C42F008026264CD
:101D7C00626C002AD5D013F0200F02D010F0200F87
:101D8C0029D123685B6903F04003626C12F0080FE1
:101D9C0000D163B32046FFF7AFFE23685B6913F0F5
:101DAC00400F20D0226802F1140353E8003F23F0C7
:101DBC004003143242E800310029F3D1E36B73B1D4
:101DCC00624A5A63E06BFFF75BF90028A9D0E06B1D
:101DDC00436B9847A5E72046FFF704FFD1E7204661
:101DEC00FFF7F6FE9DE72046FFF7F2FE99E7204647
:101DFC00FFF7EEFE0023636493E713F0100F82D01D
:101E0C0010F0100F3FF47FAF002301931368019380
:101E1C0053680193019B536913F0400F51D0E26B4F
:101E2C0013685B689BB2002B3FF47BAFA18D99428A
:101E3C007FF677AFE3859369202B37D0226802F1C8
:101E4C000C0353E8003F23F480730C3242E800315A
:101E5C000029F3D1226802F1140353E8003F23F068
:101E6C000103143242E800310029F3D1226802F157
:101E7C00140353E8003F23F04003143242E80031CE
:101E8C000029F3D1202384F84230002323632268F5
:101E9C0002F10C0353E8003F23F010030C3242E82C
:101EAC0000310029F3D1E06BFFF7C6F8022363631E
:101EBC00A18DE38D9BB2C91A89B22046FFF791FE22
:101ECC002FE7A18DE38D9BB2C91A89B2E38D9BB22A
:101EDC00002B3FF426AF00293FF423AF226802F118
:101EEC000C0353E8003F23F490730C3242E80030AB
:101EFC000028F3D1226802F1140353E8003F23F0C9
:101F0C000103143242E800300028F3D1202384F876
:101F1C00423000232363226802F10C0353E8003F94
:101F2C0023F010030C3242E800300028F3D10223D6
:101F3C0063632046FFF755FEF3E62046FFF70AFEE3
:101F4C00EFE62046FFF737FEEBE600BFDF1B00088D
:101F5C0081628285C28500234364222380F842304B
:101F6C00036923B10268D36843F48073D3600268B9
:101F7C00536943F0010353610268D36843F02003B3
:101F8C00D3600020704708B590F84230DBB2202BAC
:101F9C0008D149B10AB9012008BD00230363FFF73A
:101FAC00D7FFF9E70220F7E70120F5E7704700B506
:101FBC0091B02822002106A8FEF7A2F80023019375
:101FCC000293039304930593012206924FF48033FA
:101FDC0007930A9202220D920E934FF4E0130F9383
:101FEC0006A8FEF7ABFB80B90F23019302210291E7
:101FFC00002303934FF480620492059301A8FEF72B
:10200C00CFFD28B911B05DF804FBFEF745F9EBE7FD
:10201C00FEF742F9F6E700B583B0012201A91420BE
:10202C0000F082F89DF8041001F00303032B03D198
:10203C00002003B05DF804FB012241F003011420E1
:10204C0000F07EF8F4E700B583B0012201A9104638
:10205C0000F076F89DF8040003B05DF804FB08B5B9
:10206C000F20FFF7F0FF08BD08B500F081F890B322
:10207C000F20FFF7E8FF01220021122000F060F88A
:10208C0001220021132000F05BF8012226212420DC
:10209C0000F056F8012280212A2000F051F801228C
:1020AC00A9212B2000F04CF8012203212C2000F058
:1020BC0047F80122E8212D2000F042F801224021AE
:1020CC00152000F03DF801223D21112000F038F8D8
:1020DC00FFF7A1FF08BD002000F03EF8012000F042
:1020EC003BF8C8E700B583B0012201A9372000F006
:1020FC001BF89DF8040003B05DF804FB00B583B039
:10210C00012201A9104600F00FF89DF8040003B05D
:10211C005DF804FB10B4034C0FC884E80F0010BC2E
:10212C00704700BF0C01002008B5044B5B680BB175
:10213C00984708BD4FF0FF30FBE700BF0C010020B3
:10214C0008B5044B1B6813B19847002008BD4FF02D
:10215C00FF30FBE70C01002008B5044B9B6813B162
:10216C009847002008BD4FF0FF30FBE70C01002022
:10217C0008B5044BDB680BB1984708BD4FF0FF3036
:10218C00FBE700BF0C010020FFF710FF0B480C49C8
:10219C000C4A002302E0D458C4500433C4188C42B7
:1021AC00F9D3094A094C002301E013600432A2421E
:1021BC00FBD3FDF7F5FFFEF74BF87047000000204E
:1021CC000C000020342200080C0000201C01002010
:1021DC00FEE70000F8B500BFF8BC08BC9E4670478F
:0C21EC00F8B500BFF8BC08BC9E46704768
:1021F800B50400082505000881030008A1030008AC
:102208000102000002030405060708090A0B0C0D69
:102218000E0F10100000000000000000010203046F
:042228000607080994
:04222C002102000883
:04223000FD010008A4
:0C223400010000001000000000127A0001
:040000050800219539
:00000001FF
